{
  "contractName": "QuranContract",
  "abi": [
    {
      "inputs": [],
      "payable": false,
      "stateMutability": "nonpayable",
      "type": "constructor",
      "signature": "constructor"
    },
    {
      "anonymous": false,
      "inputs": [
        {
          "indexed": false,
          "name": "ayatNumber",
          "type": "uint256"
        },
        {
          "indexed": false,
          "name": "ayatHash",
          "type": "string"
        }
      ],
      "name": "ayatAdded",
      "type": "event",
      "signature": "0xc5c52b24cbd8dcf66edb1dac3884eeaed8124d380a15adc657785eac5e988d55"
    },
    {
      "anonymous": false,
      "inputs": [
        {
          "indexed": false,
          "name": "ayatNumber",
          "type": "uint256"
        }
      ],
      "name": "ayatDeleted",
      "type": "event",
      "signature": "0x0ad7f0fee580be480a30b64d7e897ccd626c627d73b5fc5cfcf94b9c8aa553b9"
    },
    {
      "constant": false,
      "inputs": [
        {
          "name": "ayatNumber",
          "type": "uint256"
        },
        {
          "name": "ayatHash",
          "type": "string"
        }
      ],
      "name": "addAyat",
      "outputs": [],
      "payable": false,
      "stateMutability": "nonpayable",
      "type": "function",
      "signature": "0xa8227d15"
    },
    {
      "constant": true,
      "inputs": [
        {
          "name": "ayatNumber",
          "type": "uint256"
        }
      ],
      "name": "getAyat",
      "outputs": [
        {
          "name": "",
          "type": "string"
        }
      ],
      "payable": false,
      "stateMutability": "view",
      "type": "function",
      "signature": "0x05872665"
    },
    {
      "constant": false,
      "inputs": [
        {
          "name": "ayatNumber",
          "type": "uint256"
        }
      ],
      "name": "deleteAyat",
      "outputs": [],
      "payable": false,
      "stateMutability": "nonpayable",
      "type": "function",
      "signature": "0x2cac3721"
    }
  ],
  "bytecode": "0x608060405234801561001057600080fd5b50336000806101000a81548173ffffffffffffffffffffffffffffffffffffffff021916908373ffffffffffffffffffffffffffffffffffffffff16021790555061069c806100606000396000f3fe608060405260043610610057576000357c0100000000000000000000000000000000000000000000000000000000900463ffffffff168063058726651461005c5780632cac372114610110578063a8227d151461014b575b600080fd5b34801561006857600080fd5b506100956004803603602081101561007f57600080fd5b810190808035906020019092919050505061021d565b6040518080602001828103825283818151815260200191508051906020019080838360005b838110156100d55780820151818401526020810190506100ba565b50505050905090810190601f1680156101025780820380516001836020036101000a031916815260200191505b509250505060405180910390f35b34801561011c57600080fd5b506101496004803603602081101561013357600080fd5b81019080803590602001909291905050506102d2565b005b34801561015757600080fd5b5061021b6004803603604081101561016e57600080fd5b81019080803590602001909291908035906020019064010000000081111561019557600080fd5b8201836020820111156101a757600080fd5b803590602001918460018302840111640100000000831117156101c957600080fd5b91908080601f016020809104026020016040519081016040528093929190818152602001838380828437600081840152601f19601f8201169050808301925050505050505091929192905050506103ef565b005b6060600160008381526020019081526020016000208054600181600116156101000203166002900480601f0160208091040260200160405190810160405280929190818152602001828054600181600116156101000203166002900480156102c65780601f1061029b576101008083540402835291602001916102c6565b820191906000526020600020905b8154815290600101906020018083116102a957829003601f168201915b50505050509050919050565b6000809054906101000a900473ffffffffffffffffffffffffffffffffffffffff1673ffffffffffffffffffffffffffffffffffffffff163373ffffffffffffffffffffffffffffffffffffffff16141515610396576040517f08c379a000000000000000000000000000000000000000000000000000000000815260040180806020018281038252600e8152602001807f4e6f7420417574686f72697a656400000000000000000000000000000000000081525060200191505060405180910390fd5b6001600082815260200190815260200160002060006103b59190610583565b7f0ad7f0fee580be480a30b64d7e897ccd626c627d73b5fc5cfcf94b9c8aa553b9816040518082815260200191505060405180910390a150565b6000809054906101000a900473ffffffffffffffffffffffffffffffffffffffff1673ffffffffffffffffffffffffffffffffffffffff163373ffffffffffffffffffffffffffffffffffffffff161415156104b3576040517f08c379a000000000000000000000000000000000000000000000000000000000815260040180806020018281038252600e8152602001807f4e6f7420417574686f72697a656400000000000000000000000000000000000081525060200191505060405180910390fd5b806001600084815260200190815260200160002090805190602001906104da9291906105cb565b507fc5c52b24cbd8dcf66edb1dac3884eeaed8124d380a15adc657785eac5e988d5582826040518083815260200180602001828103825283818151815260200191508051906020019080838360005b83811015610544578082015181840152602081019050610529565b50505050905090810190601f1680156105715780820380516001836020036101000a031916815260200191505b50935050505060405180910390a15050565b50805460018160011615610100020316600290046000825580601f106105a957506105c8565b601f0160209004906000526020600020908101906105c7919061064b565b5b50565b828054600181600116156101000203166002900490600052602060002090601f016020900481019282601f1061060c57805160ff191683800117855561063a565b8280016001018555821561063a579182015b8281111561063957825182559160200191906001019061061e565b5b509050610647919061064b565b5090565b61066d91905b80821115610669576000816000905550600101610651565b5090565b9056fea165627a7a72305820af78078826d2e7d519ea4a566afb2e88ec8da32134c700a52f17ee7cbf0d34f30029",
  "source": "pragma solidity >=0.4.21 <0.6.0;\r\n\r\n\r\ncontract QuranContract {\r\n    address private owner;\r\n    \r\n    mapping(uint => string) private quranAyatHash;\r\n    \r\n    constructor() public {\r\n        owner = msg.sender;\r\n    }\r\n    \r\n    event ayatAdded(uint ayatNumber, string ayatHash);\r\n    \r\n    event ayatDeleted(uint ayatNumber);\r\n    \r\n    modifier onlyOwner {\r\n        require(msg.sender == owner, \"Not Authorized\");\r\n        _;\r\n    }\r\n    \r\n    function addAyat(uint ayatNumber, string memory ayatHash) public onlyOwner {\r\n        quranAyatHash[ayatNumber] = ayatHash;\r\n        emit ayatAdded(ayatNumber, ayatHash);\r\n    }\r\n    \r\n    function getAyat(uint ayatNumber) public view returns(string memory){\r\n        return quranAyatHash[ayatNumber];\r\n    }\r\n    \r\n    function deleteAyat(uint ayatNumber) public onlyOwner {\r\n        delete quranAyatHash[ayatNumber];\r\n        emit ayatDeleted(ayatNumber);\r\n    }\r\n    \r\n}",
  "sourcePath": "F:/Javascript/Al-Quran-app/smart-contract/contracts/QuranContract.sol",
  "compiler": {
    "name": "solc",
    "version": "0.5.0+commit.1d4f565a.Emscripten.clang"
  },
  "schemaVersion": "3.0.1",
  "updatedAt": "2019-01-28T08:35:44.365Z",
  "devdoc": {
    "methods": {}
  },
  "userdoc": {
    "methods": {}
  }
}